:020000040800F2
:10000000E0090020D1010008D1220008C92200081F
:10001000CD2200089908000889240008000000008B
:10002000000000000000000000000000D9220008CD
:10003000790B000800000000D5220008DD2200082E
:10004000EB010008EB010008EB010008EB010008E0
:10005000EB010008EB010008EB010008EB010008D0
:10006000EB010008EB010008EB010008EB010008C0
:10007000EB010008EB010008EB010008EB010008B0
:10008000EB010008EB010008EB010008EB010008A0
:10009000EB010008EB010008EB010008EB01000890
:1000A000EB010008EB010008EB010008EB01000880
:1000B000EB010008EB010008E5220008EB01000855
:1000C000EB010008EB010008EB010008EB01000860
:1000D000EB010008B5230008712400087D24000806
:1000E000EB010008EB010008EB01000800F002F84A
:1000F00000F05FF80AA090E8000C82448344AAF163
:100100000107DA4501D100F054F8AFF2090EBAE860
:100110000F0013F0010F18BFFB1A43F0010318473B
:10012000C4280000E42800000A444FF0000C10F836
:10013000013B13F0070408BF10F8014B1D1108BF65
:1001400010F8015B641E05D010F8016B641E01F805
:10015000016BF9D113F0080F1EBF10F8014BAD1C55
:100160000C1B09D16D1E58BF01F801CBFAD505E073
:1001700014F8016B01F8016B6D1EF9D59142D6D3CD
:10018000704700000023002400250026103A28BFF5
:1001900078C1FBD8520728BF30C148BF0B607047F9
:1001A000782900F07180002070471FB51FBD10B581
:1001B00010BD00F037FB1146FFF7F7FF02F066F9BC
:1001C00000F055FB03B4FFF7F2FF03BC00F05CFB4B
:1001D0000948804709480047FEE7FEE7FEE7FEE7DB
:1001E000FEE7FEE7FEE7FEE7FEE7FEE70448054917
:1001F000054A064B70470000E1220008ED000008A8
:10020000E0030020E0090020E0050020E0050020D8
:100210000FB41CB5074B06AA7B44694600900598AD
:1002200000F025FA0020694600F034FA1CBC5DF8A5
:1002300014FB00007904000070B50446856900686D
:10024000C10601D5302600E02026C00707D070BDCA
:10025000D4E9012130469047206A401C20626D1E7F
:10026000F6D570BD70B5044685690078C00707D122
:1002700070BDD4E9012120209047206A401C2062F3
:100280006D1EF6D570BD000070B504460D462146C2
:100290001068AFF300802188090502D50F4A7A441F
:1002A00002E00E4A7A440E32002104F1240305E0F4
:1002B00000F00F060009965D5E54491C0028F7D136
:1002C00020780023000704D5702D02D009B1022345
:1002D00011322046BDE8704000F06AB94C2500009C
:1002E0002DE9F05F894604464FF0000ADFF824B19B
:1002F000FB44C0F820A02046E168884700287DD054
:10030000252806D0D4E901219047206A401C2062AC
:10031000F1E700255F462046E16888472028064629
:1003200007DB312E05D2B81910F8200C08B10543AF
:10033000F1E7A80701D525F00405C4F81CA00027A3
:10034000C4F818A02A2E09D0304602F049FA38B372
:1003500004EB8708303EC8F8186019E059F8041B10
:10036000204604EB87029161E1688847012F064629
:1003700018D1E069002820DA25F020051DE0D8F822
:10038000180000EB800006EB40003038C8F8180079
:100390002046E1688847064602F022FA0028EED19E
:1003A000012F0AD02E2E08D12046E16888477F1CF5
:1003B0000646022F45F02005C4DBA069002803DAB9
:1003C000404245F00105A061E80701D025F0100585
:1003D000A6B1A6F14100192802D8203645F40065DF
:1003E0004A463146204625604D46FFF7D9FE60B1AA
:1003F000012807D0ED1D25F0070000E007E000F11F
:10040000080978E705F1040975E730467AE7206ABC
:10041000BDE8F09F22250000014A00F041B900002C
:100420000000002040EA0103024630B59B0710D1CE
:100430004FF0013400E008C208C91D1B9D4315EAB6
:10044000C41FF8D013F0FF0102F8011B0DD01B0AE6
:10045000F8E711F8013B002B02F8013B05D011F839
:10046000013B002B02F8013BF3D130BD10B5431C1A
:1004700002E010F8011B71B18107FAD14FF001328F
:1004800002C88C1A8C4314EAC211F9D0C01A0A06A9
:1004900003D0C01E10BDC01A10BD0A0401D0801EBA
:1004A00010BD0902FCD0401E10BD421E12F8013FD3
:1004B000002BFBD111F8013B002B02F8013BF9D1D5
:1004C0007047431A28BF9A4240F20C8110441144ED
:1004D000032A40F2268010F0030F1EBF11F8013DE1
:1004E000521E00F8013D10F0030F7FF4F6AF11F03B
:1004F000030300F04F81083AC0F00B8051F8043D2F
:10050000083A51F804CD40F8043D40F804CDFFF717
:10051000F3BF121D5CBF51F8043D40F8043DAFF33A
:100520000080D20724BF11F8013D11F801CD48BF6A
:1005300011F8012C24BF00F8013D00F801CD48BF9F
:1005400000F8012C704710B5203AC0F00B80B1E8DC
:100550001850A0E81850B1E81850A0E81850203AF8
:10056000BFF4F5AF5FEA027C24BFB1E81850A0E801
:10057000185044BF18C918C0BDE810405FEA827C1B
:1005800024BF51F8043B40F8043B08BF7047D20732
:1005900028BF31F8023B48BF11F8012B28BF20F8D3
:1005A000023B48BF00F8012B704770477047704707
:1005B0002DE9F0470D4699469246044600F124087D
:1005C0000168880604D5E06921F01001216000E08F
:1005D0000120A84201DD471B00E00027A1697A192C
:1005E00002EB0900081AA0612078C00602D4204658
:1005F000FFF722FE002608E0D4E901211AF80600E0
:100600009047206A401C761C20624E45F4DB20781F
:10061000C0060AD52046FFF70FFE06E0D4E9012107
:1006200030209047206A401C2062381EA7F1010745
:10063000F4DC07E0D4E9012118F805009047206AAE
:10064000401C2062281EA5F10105F3DC2046FFF7BF
:1006500009FE2078000602D50220BDE8F0870120BF
:10066000FBE7000001694A1C02610878704700B589
:100670008FB0CDE901310021059105497944CDE9DB
:10068000031011466846FFF72BFE0FB000BD0000B7
:10069000E5FFFFFF0A6802F8010B0A6070470000DF
:1006A0002DE9F04115460E46040002D12C6804B92C
:1006B0000BA4204600F0A8F80444207870B1274627
:1006C0003146384600F090F80444207810B10020FC
:1006D00004F8010B38462C60BDE8F0810027F9E7EB
:1006E00000000000032A40F2308010F0030C00F0FC
:1006F000158011F8013BBCF1020F624498BF11F85C
:1007000001CB00F8013B38BF11F8013BA2F1040214
:1007100098BF00F801CB38BF00F8013B11F003038C
:100720003FF411AF083AC0F0088051F8043B083A92
:1007300051F804CBA0E80810F5E7121D5CBF51F892
:10074000043B40F8043BAFF30080D20724BF11F80C
:10075000013B11F801CB48BF11F8012B24BF00F871
:10076000013B00F801CB48BF00F8012B7047431A4A
:1007700028BF9A427FF6E7AE1044114410F0030FF1
:100780001EBF11F8013D521E00F8013D10F0030F8D
:100790007FF4F6AF103AC0F00A8010B531E9185076
:1007A00020E91850103ABFF4F9AFBDE810405307E4
:1007B00024BF31E9081020E9081044BF51F8043D76
:1007C00040F8043D12F0030F08BF7047D20728BF5E
:1007D00031F8023D48BF11F8012C28BF20F8023D36
:1007E00048BF00F8012C704730B503461D781DB195
:1007F0000A4603E0AC4201D1181A30BD12F8014B91
:10080000002CF7D15B1CF1E730B503461D783DB1F4
:100810000A4612F8014B1CB1AC42FAD15B1CF5E759
:10082000181A30BD754600F02BF8AE460500694633
:10083000534620F00700854618B020B5FFF7D6FCD8
:10084000BDE820404FF000064FF000074FF00008D1
:100850004FF0000BAC46ACE8C009ACE8C009ACE80E
:10086000C009ACE8C00921F007018D46704710B5FA
:100870000446AFF300802046BDE81040FFF7A2BC5D
:1008800000487047B001002001491820ABBEFEE7C8
:100890002600020070470000FEE700002DE9F0434B
:1008A000E5B042F628010DF10408C0F6000140460B
:1008B000C822FFF748FE40F21024C2F200040120D3
:1008C000206140F2802042F6E211C2F20000C0F640
:1008D0000001FFF7A1FDA06100B342F6E21504F1AB
:1008E0001C09C0F6000504F1240704F1200609E004
:1008F0003A461060481C206100202946FFF78CFD15
:10090000A06158B12169022906D00529F0D0032938
:10091000F0D13246EDE700BF4A46EAE740F2E4058F
:10092000C2F2000505F10D0005F11701B022FFF735
:10093000C8FD05F11C0005F12701A022FFF7C1FD4C
:1009400005F1260005F130019722FFF7BAFD08F105
:10095000260633AFE56938463146FFF763FD30467A
:100960002946FFF75FFD40463946FFF79EFD08F137
:100970001C0633AF656A38463146FFF753FD3046F3
:100980002946FFF74FFD40463946FFF78EFD08F137
:100990000D0633AF256A38463146FFF743FD304632
:1009A0002946FFF73FFD40463946FFF77EFDFFF73A
:1009B0005DFD82B240F25430C2F2000041464FF475
:1009C000967301F0A7FB65B0BDE8F0832DE9F04315
:1009D000E5B042F6F0010DF10408C0F60001404612
:1009E000C822FFF7B0FD40F21024C2F2000401203B
:1009F000206140F2802042F6E211C2F20000C0F60F
:100A00000001FFF709FDA06100B342F6E21504F111
:100A10001C09C0F6000504F1240704F1200609E0D2
:100A20003A461060481C206100202946FFF7F4FC7C
:100A3000A06158B12169022906D00529F0D0032907
:100A4000F0D13246EDE700BF4A46EAE70E20A06249
:100A5000002047A5C4F83E00C4F84200C4F8460090
:100A6000C4F84A00C4F84E00C4F85200C4F8560056
:100A7000E06200BF04EB4001204490F8302001F117
:100A80003E002946FFF7C4FBD4E90A100130884232
:100A9000E062EFDB40F21C05C2F20005E81D05F143
:100AA0002301A422FFF70DFD05F1150005F11F013B
:100AB000A822FFF706FD05F1240005F12F01982279
:100AC000FFF7FFFC05F12E0005F138018F22FFF73B
:100AD000F8FC08F12E0633AFE56938463146FFF7DA
:100AE000A1FC30462946FFF79DFC40463946FFF7FA
:100AF000DCFC08F1240633AF656A38463146FFF75F
:100B000091FC30462946FFF78DFC40463946FFF7F9
:100B1000CCFC08F1150633AF256A38463146FFF79D
:100B200081FC30462946FFF77DFC40463946FFF7F9
:100B3000BCFC08F1070533AE30462946FFF772FCCE
:100B400004F13E012846FFF76DFC40463146FFF7B1
:100B5000ACFCFFF78BFC82B240F25430C2F20000D2
:100B600041464FF4967301F0D5FA65B0BDE8F083C5
:100B7000253032580000000070470000014690F810
:100B80002100022816D10868D1E90FC3026822F0BB
:100B90000E020260026822F001020260012000FAE7
:100BA00003F2CCF8042081F821000020002281F813
:100BB00020207047042088630120002281F8202033
:100BC0007047000080B590F82110022924D10268F6
:100BD000116821F00E0111602F211368C4F2020187
:100BE0008A4240F20401C4F2020123F001031360BF
:100BF00016DD3023C4F202039A421DD04423C4F20E
:100C000002039A421CD05823C4F202039A421DD117
:100C10004FF4803322E000BF04218163012080BDB6
:100C20000823C4F202039A420ED01C23C4F202032A
:100C30009A420BD1102311E04FF480730EE000BFF5
:100C40004FF480530AE000BF012307E001F1680C74
:100C50004FF08073624508BF4FF480130B60416B07
:100C60004FF48072028401B18847002080BD0000EB
:100C7000B0B5044600F028F9054640F21000C2F273
:100C800000000078611C18BF044400BF00F01CF98C
:100C9000401BA042FAD3B0BD2DE9F04F82B041F223
:100CA0000042C4F201020E680423904208BF0323ED
:100CB000002E009300F0F68040F20C4E4FF6FF7CC1
:100CC000C4F2010E00220124C1F2100C4FF0000A00
:100CD0004FF0000943E000BF012502F00C040F278C
:100CE000A7402BEA070705FA04F43C4343F82640E3
:100CF000D1F804B040F20045C4F201055FEACB33FD
:100D00002B6854BF23EA080343EA08032B606B688F
:100D10005FEA8B3454BF23EA080343EA08036B609D
:100D20005FEACB24AB6854BF23EA080343EA080315
:100D30005FEA8B24AB60DEF800304FF0010454BF53
:100D400023EA080343EA0803CEF800300E680AF1EC
:100D5000010A36FA0AF302F1040200F0A38004FA51
:100D60000AF816EA080FF1D04B68634512DC122B23
:100D700056D8DFE803F0350B4549555555555555BF
:100D8000555555555555554D510000BFD1F80C904E
:100D900046E000BF4FF6FF77C1F22107BB420FDCF0
:100DA0000027C1F21107BB421AD00027C1F2120777
:100DB000BB4215D00027C1F22107BB4210D02FE063
:100DC0000027C1F22207BB420AD00027C1F2310737
:100DD000BB4205D00027C1F23207BB4220D100BF81
:100DE0008B684BB1012B14BFC0F81480C0F8108081
:100DF0004FF0080914E000BF4FF0040910E000BFF5
:100E0000CB6803F108090BE04FF0000908E000BFD0
:100E1000CB6803F1040903E0CB6803F10C0900BFC0
:100E200013460546BAF1080F24BF203B04352E684F
:100E30000F279F40BE4309FA03F333432B60CB795E
:100E4000DB067FF583AF41F21804C4F20204236885
:100E50004FEA9A0643F001032360236840F600043A
:100E600003F001030193019B40F20043C4F201032C
:100E7000A3F57E7353F826B0C4F20104A0420FD04C
:100E800040F60044C4F20104A0423FF425AF41F211
:100E90000004C4F20104009DA04208BF02251CE723
:100EA00000251AE702B0BDE8F08F0000C26802EA30
:100EB0000103914341EA034101617047002A08BFE1
:100EC000090401617047000040F2DC30C2F200000A
:100ED0000068704740F2100040F2DC31C2F20000BE
:100EE000C2F2000100780A681044086070470000F0
:100EF00080B542F20000C4F20200016841F0100126
:100F00000160032000F08AF80F2000F005F800F0DF
:100F100027F8002080BD000070B540F21006C2F234
:100F2000000640F218013278C2F200014FF47A73E1
:100F30000968B3FBF2F20446B1FBF2F1084600F097
:100F40005FFB0F2C4FF0010508D838B94FF0FF3088
:100F500021460022002500F035F87460284670BD57
:100F600082B041F21800C4F202000168022241F08E
:100F700001010160016801F00101019101994168DD
:100F800041F080514160406800F08050009000982E
:100F90000420C4F20100016862F31A61016002B02A
:100FA00070470000002848BF704700F01F01012271
:100FB00002FA01F14EF200124009CEF2000242F8AC
:100FC0002010704710B54EF60C5CCEF2000CDCF829
:100FD0000030C3F3022E8EF00704042C28BF042433
:100FE000BEF103034FF0FF3E0EFA04F438BF0023B6
:100FF000A14399400EFA03F39A43114300F00F0204
:10100000043A624409010C3200F16043B0F1FF3F41
:10101000C8BF03F56442117010BD00004EF60C51BC
:10102000CEF200010A684FF6FF031A4060F30A226D
:1010300042F0806040F0FD70086070472DE9F04399
:1010400081B0002800F0858042F20008C4F2020856
:101050000446D8F800000D4600F0070088420CD284
:10106000D8F8000020F007002843C8F80000D8F89E
:10107000000000F00700A8426BD1206841F204098B
:101080008107C4F2020917D5410705D5D9F8001028
:1010900041F4E061C9F80010010705D5D9F8001046
:1010A00041F46051C9F80010D9F80010A26821F08D
:1010B000F0011143C9F80010C00741D1D8F8000071
:1010C00000F00700A8420CD9D8F8000020F0070073
:1010D0002843C8F80000D8F8000000F00700A84234
:1010E00037D12068410707D5D9F80010E26821F40C
:1010F000E0611143C9F80010000708D5D9F80000D5
:10110000216920F4605040EAC100C9F80000D9F814
:10111000002002F00C00082841F20020C0F27A0002
:1011200050D142F6D213C2F38341C0F60003595C9A
:10113000D2033BD440F60010C0F23D00484341E0EA
:10114000606802280AD001282AD159F8041C8903B2
:1011500008D4012001B0BDE8F08300BF59F8041C99
:101160008901F6D5D9F8001021F003010843C9F828
:101170000000FFF7A9FE064641F28837D9F80000C3
:10118000616800F00C00B0EB810F97D0FFF79CFE78
:10119000801BB842F2D9032001B0BDE8F08300BF44
:1011A00059F8041C8907D4D5DCE700BFD9F8002022
:1011B00042F6B813C2F34042C0F600039A5C4843BB
:1011C000B0FBF2F0D9F8001042F6BA12C1F30311E5
:1011D000C0F60002515C40F2180220FA01F140F220
:1011E0001400C2F200000068C2F200021160FFF7B2
:1011F00093FE002001B0BDE8F083000040F218002B
:1012000041F20401C2F20000C4F202010068096860
:1012100042F6CA12C1F30221C0F60002515CC84076
:101220007047000040F2180041F20401C2F20000D1
:10123000C4F202010068096842F6CA12C1F3C22171
:10124000C0F60002515CC840704700002DE9F04133
:1012500082B0002868D00446007841F20006C0073A
:10126000C4F2020625D0706800F00C0004281BD0E0
:10127000706800F00C00082802D17068C00313D415
:101280006068002800F06881B0F5A02F00F07C8134
:10129000B0F5803F00F07C81306820F48030306011
:1012A000306820F4802076E13068800301D56068E2
:1012B000D0B32078800718D5706810F00C0F07D0D5
:1012C000706800F00C0008286ED17068C0036BD401
:1012D0003068800702D52069012825D1306861690E
:1012E00020F0F80040EAC1003060207800071FD4E9
:1012F0002078400732D4E56995B1706800F00C00A1
:10130000082840F08F80012D0ED07068216A00F40B
:1013100080328A4208D1616A00F47010884203D199
:10132000002002B0BDE8F081012002B0BDE8F081EC
:10133000A069002862D00020C4F242200121C0F838
:101340008014FFF7C1FD0546706A800700F18C80AC
:10135000FFF7BAFD401B0228F6D92AE1F06910F028
:10136000805808D1F06940F08050F061F06900F0D9
:1013700080500090009847F20007C4F200073868D8
:10138000C00529D4386840F480703860FFF79CFDB0
:10139000054600BF3868C0051ED4FFF795FD401B09
:1013A0006428F7D905E100BF2069002840F2000059
:1013B000C4F2422000F0828001210160FFF784FD29
:1013C000054600BF306880073FF588AFFFF77CFD1A
:1013D000401B0228F6D9ECE0E068002800F080808D
:1013E000052800F09780012800F09880306A20F0EE
:1013F00001003062306A20F0040092E00020C4F264
:1014000042200021C0F88014FFF75EFD054600BFB2
:10141000706A80077FF56CAFFFF756FD401B02280E
:10142000F6D9C6E00027C4F2422700203866FFF74D
:101430004BFD022D05460BD13068800140F1BE8086
:10144000FFF742FD401B02284FF00300F4D968E784
:10145000306880017FF564AFFFF736FD401B02283E
:101460004FF00300F4D95CE740F21800C2F200002C
:10147000006844F6D351C1F26201A0FB0101480AA1
:10148000019000BF00BF0198411E002801913FF468
:101490002FAF00BF0198411E002801913FF428AFF3
:1014A00000BF0198411E002801913FF421AF00BF09
:1014B0000198411E00280191E4D119E70021016043
:1014C000FFF702FD054600BF306880077FF50DAFCE
:1014D000FFF7FAFC401B02284FF00300F4D920E785
:1014E000306A20F001003062306A20F0040030627F
:1014F000FFF7EAFC054641F2883700BF306A8007F3
:1015000020D5FFF7E1FC401BB8424FF00300F5D9AE
:1015100007E700BF306A40F004003062306A40F0F4
:1015200001003062FFF7D0FC054641F2883700BF6A
:10153000306A800706D4FFF7C7FC401BB842F7D9D2
:1015400037E000BFB8F1000F7FF4D5AEF06920F0AE
:101550008050F061CFE600BF306820F4803030600A
:10156000306820F480203060FFF7AEFC054600BFF5
:10157000306880037FF59DAEFFF7A6FC401B642812
:101580004FF00300F4D9CCE6306840F4802030609E
:10159000306840F480303060FFF796FC054600BFAD
:1015A000306880033FF585AEFFF78EFC401B642852
:1015B000F6D9032002B0BDE8F08100BF206AB0F583
:1015C000803F05D17168A26821F400311143716038
:1015D0007168626A21F4741110430843706001203D
:1015E0003866FFF771FC0446306880013FF598AE1D
:1015F000FFF76AFC001B02284FF00300F4D990E6C5
:10160000411E0020B0EB116F1CBF012070474EF24D
:101610001002CEF2000251604EF62351CEF20001CC
:10162000F0230B7007219060116070477047000035
:101630007047000010B590F83C20012A4FF00202DC
:1016400033D080F83D200268D2F804E0D2F808C018
:101650000C682EF07003234340F2FF74C4F20004C0
:10166000A24253600ADCB2F1804F13D040F2004333
:10167000C4F200039A420DD011E000BF42F60043CD
:10168000C4F201039A4205D040F60003C4F20003FD
:101690009A4204D149682CF08003194391600121DA
:1016A000002280F83D1080F83C20104610BD00005C
:1016B000002804BF0120704710B5044690F83D0093
:1016C00028B9002084F83C00204600F067F802208A
:1016D00084F83D00206840F2FF730268C4F2000302
:1016E00042F6004C9842C4F2010C15DCB0F1804F78
:1016F0001AD040F20041C4F20001884214D098424E
:1017000018DCB0F1804F1DD040F20041C4F200015E
:10171000884217D01AE000BF604505D040F60001AE
:10172000C4F200018842EAD1A16822F070020A43A3
:101730009842E6DD604505D040F60001C4F20001A4
:10174000884203D1216922F440720A43A36922F03E
:101750008001D4F804E0E268194360450160C26288
:10176000C0F828E002D16169CCF830100121416154
:10177000002084F8461084F83E1084F83F1084F866
:10178000401084F8411084F8421084F8431084F823
:10179000441084F8451084F83D1010BD80B582B027
:1017A000006840F60001C4F2000188421CBF02B08C
:1017B00080BD41F21C00C4F202000168002241F029
:1017C000040101600068012100F00400019001980B
:1017D0001E20FFF7F7FB1E2002B0BDE88040FFF798
:1017E000E1BB000090F83D1001291CBF01207047AB
:1017F000022180F83D10006840F2FF72C168C4F217
:101800000002904241F00101C16009DCB0F1804F5B
:1018100012D040F20041C4F2000188420CD012E024
:1018200042F60041C4F20101884205D040F60001B1
:10183000C4F20001884206D1816801F0070106293F
:1018400004BF00207047016841F0010101600020E1
:101850007047000080B590F83C20012A4FF002024A
:1018600000F0BF8080F83D20D0F800C04FF67772BE
:10187000DCF8083023EA0202CCF808200B683F2B82
:101880001CDD5F2B20DD602B50D0B3F5005F6DD0E9
:10189000702B40F0A080D1E901E3C968DCF8082092
:1018A00043EA0E0322F47F4243EA01211143CCF8BC
:1018B0000810DCF8081041F077018AE01F2B29DCC2
:1018C00063B3102B2AD086E0402B63D0502B40F01E
:1018D0008280D1F804E0C968DCF82030DCF82020F0
:1018E00022F00102CCF82020DCF8182022F0F002CF
:1018F00042EA011123F00A0242EA0E02CCF8181063
:10190000CCF82020DCF8081041F0570121F020012C
:101910005FE000BF202B01D0302B5CD1DCF8081039
:1019200021F07001194341F0070152E0D1F804E0C1
:10193000C968DCF8203023F01003CCF82030DCF844
:101940001830DCF8202023F4704322F0A00243EA90
:10195000013142EA0E12CCF81810CCF82020DCF845
:10196000081041F0670121F0100132E0D1E901E3F4
:10197000C968DCF8082043EA0E0322F47F4243EAF8
:1019800001211143CCF80810DCF8081041F4804123
:101990001FE000BFD1F804E0C968DCF82030DCF8B3
:1019A000202022F00102CCF82020DCF8182022F0C0
:1019B000F00242EA011123F00A0242EA0E02CCF8D8
:1019C0001810CCF82020DCF8081041F0470121F075
:1019D0003001CCF808100121002280F83D1080F879
:1019E0003C20104680BD00007047000010B5016823
:1019F00004460869800744BFC8685FEA807039D42C
:101A00000869400744BFC8685FEA40703ED408696F
:101A1000000744BFC8685FEA007045D40869C00683
:101A200044BFC8685FEAC0604AD40869C0071CBFE9
:101A3000C8685FEAC07051D10869000644BFC86831
:101A40005FEA006052D40869400644BFC8685FEA94
:101A5000406053D40869800646BFC8685FEA80606A
:101A600010BD6FF0200220460A61BDE81040FFF76C
:101A7000DFBD00BF6FF00200086101202077886998
:101A8000800743D02046FFF7AFFF45E06FF004002A
:101A9000086102202077886910F4407F40D02046FA
:101AA000FFF7A2FF42E000BF6FF0080008610420CA
:101AB0002077C86980073DD02046FFF795FF3FE0BB
:101AC0006FF01000086108202077C86910F4407F8B
:101AD0003AD02046FFF788FF3CE000BF6FF00100DE
:101AE0000861204600F03EF82168A5E76FF080000D
:101AF00008612046FFF79AFD2168A4E76FF04000D7
:101B00000861204600F04CF82168A3E7204600F069
:101B100025F8204600F024F82168002020776FE7A0
:101B2000204600F01BF8204600F01AF8216800203B
:101B300020776CE7204600F011F8204600F010F8FE
:101B400021680020207769E7204600F007F820464A
:101B500000F006F821680020207766E77047000053
:101B60007047000040F2C821C2F200010068096815
:101B7000884213D140F27C20C2F2000000680128A4
:101B80000CD140F21020C2F200004168002918BFB9
:101B900070478068012801D1FEF780BE70470000C1
:101BA000704700007047000070470000B0B582B079
:101BB000026805461068D368546900F02F01202997
:101BC00003F0200106D129B1284602B0BDE8B0409B
:101BD00000F094BB5FEA007C1EBF04F0010E03F42A
:101BE000907414EB0E0455D1296B012905D110F026
:101BF000100118BF13F0100136D1010622D513F0E1
:101C000080011FD095F83D00212841D1A868B0F58A
:101C1000805F03D12869002800F0F680286A411C03
:101C2000296200785060E88C01380104E8842FD1E3
:101C3000D06820F08000D060D06840F04000D060D4
:101C400002B0B0BD400623D513F0400020D0D068CC
:101C5000202120F04000D060284685F83D1002B0D9
:101C6000BDE8B04000F02EBB00200190106801904C
:101C70005068019001985069400613D4A88DE98DF1
:101C8000EB8D002B1CBF401A5FEA004140F0A4809E
:101C900002B0B0BDC40718BF13F480732CD1430742
:101CA00030D436E0A86B01684B689CB2002CEFD0B2
:101CB000A98D8C42ECD2EB858369202B17D0D1689B
:101CC00021F48071D160516921F0010151615169A4
:101CD00021F040015161202185F83E100021296347
:101CE000D16821F01001D160FEF748FFA98DE88D81
:101CF000081A81B2284682E02B6C43F001032B6462
:101D0000430706D5BEF1000F03D02B6C43F002034E
:101D10002B64830706D5BEF1000F03D02B6C43F074
:101D200004032B64BCF1000F06D551EA0E0303D067
:101D30002B6C43F008032B642B6C002BA8D010F005
:101D4000200018BF002903D0284600F0D7FA2A68DF
:101D50005069296C00F0400001F0080140182DD0B6
:101D6000D06820F49070D060506920F0010050617C
:101D7000286B012803D1D06820F01000D06020200B
:101D800085F83E0000202863506940061ED5506942
:101D900020F040005061A86BC0B142F2F121C0F6C2
:101DA00000014163FEF70EFF00283FF471AFA86BFE
:101DB000416B02B0BDE8B040084700BF2846FFF7BE
:101DC000F3FE0020286402B0B0BD00BF284602B078
:101DD000BDE8B040FFF7E8BED16821F49071D16052
:101DE000516921F001015161202185F83E10002147
:101DF0002963D16821F0100381B22846D36002B074
:101E0000BDE8B040FFF7CEBE286A30F8021B6FF382
:101E10005F215160286206E7002804BF0120704757
:101E200010B5044690F83D0028B9002084F83C0025
:101E3000204600F05FF8242084F83D002068D4E9B3
:101E40000212C36823F40053C360036923F44053B0
:101E50001A430261D4E904231143C268194341F2D1
:101E60000C639A431143C1604169A26921F4407136
:101E7000114343F60002C4F201029042416103D0D3
:101E8000FFF7BCF902E000BFFFF7CCF96268192147
:101E900048439100B0FBF1F048F21F51C5F2EB113D
:101EA000A0FB01235A096FF0630302FB03003223F6
:101EB00003EB0010A0FB0101F02303EA511320689B
:101EC00003EB0212C1F3431111448160016921F453
:101ED00090410161416921F02A014161C16841F4E9
:101EE0000051C16000202021206484F83D1084F856
:101EF0003E1010BDB0B586B0006844F20041C4F297
:101F0000000188424FF00001CDE90411CDE9021132
:101F100036D044F60001C4F20001884258D043F69E
:101F20000001C4F20101884240F08C8041F21800A7
:101F3000C4F20200016840F6000441F480410160EF
:101F40000168C4F2010401F4804101910199016822
:101F500041F004010160006802A900F00400019052
:101F600001984FF400700290022003900320059026
:101F70002046FEF791FE4FF480600290252552E046
:101F800041F21800C4F20200416840F6000441F436
:101F9000003141604168C4F2010401F40031019153
:101FA0000199016841F004010160006802A900F094
:101FB0000400019001980420029002200390032065
:101FC00005902046FEF768FE0820029026252AE0AC
:101FD00041F21800C4F20200416841F480214160DE
:101FE000416801F4802101910199016841F00801E3
:101FF0000160006802A900F00800019001984FF408
:1020000080600290022003900320059040F60000BB
:10201000C4F2010000F580642046FEF73DFE4FF457
:102020000060272502900020CDE9030002A9204688
:10203000FEF732FE284600210022FEF7C3FF2846A5
:10204000FEF7B0FF06B0B0BD034690F83E00202872
:102050000AD100294FF0010018BF002A00D17047B3
:1020600093F83C00012801D102207047002018633A
:10207000996222219A85DA85186483F83E101968DE
:1020800083F83C00CA6842F48072CA604A6942F030
:1020900001024A61CA6842F02002CA60704700002B
:1020A00044F20041C4F20001026801F580608242FE
:1020B00040F21020C2F2000005D18368012B02BF5C
:1020C0000121416070478A4218BF70470278417809
:1020D0006F2A08BF6B2909D06E2A08BF6F290BD061
:1020E000772A08BF66290DD0704700BF01218160A3
:1020F00000214161704700BF02210022C0E9012197
:10210000704700BF03210022C0E901210121416184
:10211000704700002DE9F04381B0044690F83D007F
:1021200020280DD10F4600294FF0010000F09280C9
:102130001646002A00F08E8094F83C00012803D156
:10214000022001B0BDE8F083012084F83C004FF08C
:10215000000921201D46C4F8409084F83D00FEF798
:10216000B3FEA684E684A1688046B1F5805F25D1E0
:10217000206900281CBF38464F463E46074684F873
:102180003C90E08C00B3681C20D0002D66D1206804
:102190000BE000BF36F8021B00276FF35F214160A0
:1021A000E18C0139E184E18C81B30168090675D5C0
:1021B000002FEFD017F8011BF1E700BF002684F8CD
:1021C0003C90E08C0028DED120681FE0206802E00F
:1021D0000168090609D40168090606D401680906E0
:1021E0005CBF01685FEA0161F2D51FB117F8011BFE
:1021F00005E000BF36F8021B00276FF35F21416046
:10220000E18C0139E184E18C0029E4D101684906BF
:102210001CD4002D42D0691C0ED10168490615D48A
:10222000016849065CBF01685FEA41610ED401683C
:102230004906F2D50AE000BFFEF746FEA0EB080112
:102240002068A9422AD800684006F5D5202084F8E5
:102250003D00002001B0BDE8F08300BF206800BF52
:102260000168090608D4FEF72FFEA0EB08012068DC
:10227000A942F5D912E000BF17B117F8011B04E01D
:1022800036F8021B00276FF35F214160E18C0139B2
:10229000E184E18C0029E3D1B8E700BFC16821F4F3
:1022A000D071C160416921F001014161202084F8B1
:1022B0003D0084F83E00002084F83C00032001B07B
:1022C000BDE8F08370470000FEE70000FEE7000075
:1022D000FEE700007047000070470000FEF7FABDFF
:1022E0007047000040F2C820C2F20000FFF77EBB3A
:1022F000406A0021C185C184FFF756BC81B090F8C7
:102300003E10222920D18368B3F5805F08D101698E
:10231000002941D000F128010A6803685B680AE0DF
:10232000014651F8282F13B90369002BF5D0036833
:102330005B6803F07F0313700A6801320A60C18D85
:1023400001390A04C18501D001B070470168CA682B
:1023500022F02002CA60CA6822F48072CA604A6908
:1023600022F001024A61202280F83E20026B012AFD
:102370001CD100220263CB6823F01003CB600B68F2
:10238000DB0605D500920A68009249680091009921
:10239000818D01B0FFF706BC0168826A49686FF35E
:1023A0005F2122F8021B8262C9E700BF01B0FFF77C
:1023B00077BE000080B540F21030C2F20000FFF797
:1023C000F5FB43F60400C4F20100026840F26C2001
:1023D000C2F20000C36840F2040CC2F2000C0270AA
:1023E000F3B9D1B2D0F808E0242908BFBEF1000F3C
:1023F00006D0BEF1010F05D0D0F804E009E000BF1F
:1024000001218160416801F1010E0144C0F804E03E
:102410000A75DCF804108E4504BF0021C0E90111E3
:10242000817D4E2908D1C17D472905D1017E4729EB
:1024300002D10121C16001E0012B07D1DCF800309D
:10244000591C0344CCF800101A7501E0DCF80010A8
:10245000DCF80820914218BF80BD0421FF22CCF88F
:1024600000100021C2750122C0E9031280BD0000E6
:1024700040F25430C2F20000FFF798BB40F29830AF
:10248000C2F20000FFF792BBFEE7000090B0FEF73B
:102490002FFD00240120CDE90B44CDE909440A9029
:1024A00010200B904FF4C01002250F9006A8CDE924
:1024B00007440695CDE90D54FEF7C8FE20B1EFF3B1
:1024C000108072B6FEE700BF0F20CDE90005684618
:1024D0000121CDE9024404944FF00108FEF7AEFD5E
:1024E00020B1EFF3108072B6FEE700BF41F2180092
:1024F000C4F20200016840F6004441F0100101609E
:102500000168C4F2010401F0100106910699016806
:1025100004F5806541F0040101600168002201F0CA
:1025200004010691069901684FF4005641F0080134
:10253000016000684FF4005100F008000690069812
:1025400028460027FEF7BAFC20464FF4E04100225F
:102550004FF4E049FEF7B2FCCDE9066806AE4FF055
:10256000020A284631460897CDF824A0FEF794FBCE
:1025700020463146CDE90698CDE9087AFEF78CFB76
:1025800040F2C820A4F58231C2F2000047F6FF42B3
:1025900040F2CF7380E8860080210997CDE9077764
:1025A000CDE90077C0E903378161FFF781F828B1F1
:1025B000EFF3108072B600BFFEE700BF4FF480500B
:1025C000069040F2C820C2F2000006A9FFF742F9C7
:1025D00020B1EFF3108072B6FEE700BF40F2C820D2
:1025E000C2F200006946FFF725F828B1EFF310802A
:1025F00072B600BFFEE700BF40F2103504F5305060
:10260000C2F200054FF4165700264FF00C08C5E93A
:1026100000072846C5E90266C5E90468C5E90666FB
:10262000FFF7FAFB20B1EFF3108072B6FEE700BFB0
:1026300040F25430A4F54841C2F20000C0E900174E
:10264000C0E90266C0E90468C0E90666FFF7E4FB7A
:1026500020B1EFF3108072B6FEE700BF40F2983071
:10266000A4F54441C2F2000000260C234FF4165298
:1026700080E84600C0E90366C0E90536C661FFF799
:10268000CBFB28B1EFF3108072B600BFFEE700BFAE
:102690002868C16841F02001C16040F2C820C2F240
:1026A0000000FFF79FF840F21025C2F20005EE602F
:1026B00020464FF48041FEF7F9FB6420FEF7D8FA7C
:1026C000E868411C1328E960F2DB40F2543640F21E
:1026D000983840F27C2AC2F200064FF0000905F15A
:1026E0003007C2F20008C2F2000A00BF3046294695
:1026F0000222FFF7A9FCA868032821D169690129F2
:102700001ED100BF20464FF480510022FEF7D6FBB9
:1027100020464FF480410022FEF7D0FB20464FF4C4
:102720000051FEF7C3FB4FF4FA70FEF7A1FA3046F2
:1027300029460222FFF788FC68690128E2D0A868D0
:1027400020F00201012912D020464FF480410022DE
:10275000FEF7B4FB20464FF400510122FEF7AEFB1A
:1027600020464FF480510022FEF7A8FBA8680128FC
:10277000BCD120464FF480410022FEF79FFB20464B
:102780004FF400510022FEF799FB20464FF4805190
:102790000122FEF793FB404639460E22FFF754FC18
:1027A000DAF800000128A1D1686801289ED12046EE
:1027B0004FF480410122FEF781FB20464FF4005187
:1027C0000022FEF77BFB20464FF480510022FEF7EB
:1027D00075FBFEF7FBF8CAF80090C5E9019985E79B
:1027E00030380A2801D2012070470020704730316C
:1027F0003233343536373839414243444546403028
:1028000058003031323334353637383961626364D9
:1028100065664030780004000008000000000000F9
:1028200000020001000010007B224C617469747585
:102830006465223A22222C224C6F6E67697475649B
:1028400065223A22222C2254696D65223A22227D89
:102850000000000000000000000000000000000078
:102860000000000000000000000000000000000068
:102870000000000000000000000000000000000058
:102880000000000000000000000000000000000048
:102890000000000000000000000000000000000038
:1028A0000000000000000000000000000000000028
:1028B0000000000000000000000000000000000018
:1028C0000000000000000000000000000000000008
:1028D00000000000000000000000000000000000F8
:1028E00000000000000000000000000000000000E8
:1028F0007B224944223A22222C224C61746974754D
:102900006465223A22222C224C6F6E6769747564CA
:1029100065223A22222C2254696D65223A22227DB8
:1029200000000000000000000000000000000000A7
:102930000000000000000000000000000000000097
:102940000000000000000000000000000000000087
:102950000000000000000000000000000000000077
:102960000000000000000000000000000000000067
:102970000000000000000000000000000000000057
:102980000000000000000000000000000000000047
:102990000000000000000000000000000000000037
:1029A0000000000000000000000000000000000027
:1029B0000000000000000000010200000000000014
:1029C00000000102030406070809000000000102DC
:1029D000030402030405060708090A0B0C0D0E0F79
:1029E00010102C00082A000800000020B001000090
:1029F00028010008402A0008B0010020300800002B
:102A000084010008000000004132043206324632E0
:102A10000142101324F458137B224944223A222203
:102A20002C224C617469747564650E9C6F6E670F1F
:102A30003C54696D0A02987D0ABD7BC0C10000004C
:04000005080000ED02
:00000001FF
